{
  "txid": "ae18c648bd9a51b817be55e602e2e819d2fb91c0df0744ec969ee8c205a8777d",
  "hash": "52d25d5a68b242330896c8249598a924992a9827675523de50f121110492438b",
  "version": 2,
  "size": 201,
  "vsize": 121,
  "weight": 483,
  "locktime": 0,
  "vin": [
    {
      "txid": "4a43192094c0a6532b5e672d3f0c7ead0294651f62c4307297392559fe16fdc0",
      "vout": 1,
      "scriptSig": {
        "asm": "",
        "hex": ""
      },
      "txinwitness": [
        "516303545342106469726563742d77616c6c65740000000800000000000000010075757575124469726563742057616c6c657420546573740800000000682d36af75755168",
        "c0b1639520a8f3b0106f50431310251de9638bd1097331013c99b38dd4dcb02dee"
      ],
      "sequence": 4294967295
    }
  ],
  "vout": [
    {
      "value": 0.00000450,
      "n": 0,
      "scriptPubKey": {
        "asm": "1 09ef1a208c989bc43a7435b1d30964261f63bf6e7dbf8bae8cf3027cbb6c7fb5",
        "desc": "rawtr(09ef1a208c989bc43a7435b1d30964261f63bf6e7dbf8bae8cf3027cbb6c7fb5)#h3t6l5kz",
        "hex": "512009ef1a208c989bc43a7435b1d30964261f63bf6e7dbf8bae8cf3027cbb6c7fb5",
        "address": "tb1pp8h35gyvnzdugwn5xkcaxztyyc0k80mw0klcht5v7vp8ewmv076sznyeqj",
        "type": "witness_v1_taproot"
      }
    }
  ],
  "hex": "02000000000101c0fd16fe592539977230c4621f659402ad7e0c3f2d675e2b53a6c0942019434a0100000000ffffffff01c20100000000000022512009ef1a208c989bc43a7435b1d30964261f63bf6e7dbf8bae8cf3027cbb6c7fb50245516303545342106469726563742d77616c6c65740000000800000000000000010075757575124469726563742057616c6c657420546573740800000000682d36af7575516821c0b1639520a8f3b0106f50431310251de9638bd1097331013c99b38dd4dcb02dee00000000",
  "blockhash": "000000000000014eb5bd9bcd60fbb47fa06846f04aa0decb8d015edde8083739",
  "confirmations": 4,
  "time": 1747799495,
  "blocktime": 1747799495
}
